{
  "_format": "hh-sol-artifact-1",
  "contractName": "Dappazon",
  "sourceName": "contracts/Dappazon.sol",
  "abi": [
    {
      "inputs": [],
      "stateMutability": "nonpayable",
      "type": "constructor"
    },
    {
      "anonymous": false,
      "inputs": [
        {
          "indexed": false,
          "internalType": "address",
          "name": "buyer",
          "type": "address"
        },
        {
          "indexed": false,
          "internalType": "uint256",
          "name": "orderId",
          "type": "uint256"
        },
        {
          "indexed": false,
          "internalType": "uint256",
          "name": "itemId",
          "type": "uint256"
        }
      ],
      "name": "Buy",
      "type": "event"
    },
    {
      "anonymous": false,
      "inputs": [
        {
          "indexed": false,
          "internalType": "string",
          "name": "name",
          "type": "string"
        },
        {
          "indexed": false,
          "internalType": "uint256",
          "name": "cost",
          "type": "uint256"
        },
        {
          "indexed": false,
          "internalType": "uint256",
          "name": "quantity",
          "type": "uint256"
        }
      ],
      "name": "List",
      "type": "event"
    },
    {
      "inputs": [
        {
          "internalType": "uint256",
          "name": "_id",
          "type": "uint256"
        }
      ],
      "name": "buy",
      "outputs": [],
      "stateMutability": "payable",
      "type": "function"
    },
    {
      "inputs": [
        {
          "internalType": "uint256",
          "name": "",
          "type": "uint256"
        }
      ],
      "name": "items",
      "outputs": [
        {
          "internalType": "uint256",
          "name": "id",
          "type": "uint256"
        },
        {
          "internalType": "string",
          "name": "name",
          "type": "string"
        },
        {
          "internalType": "string",
          "name": "category",
          "type": "string"
        },
        {
          "internalType": "string",
          "name": "image",
          "type": "string"
        },
        {
          "internalType": "uint256",
          "name": "cost",
          "type": "uint256"
        },
        {
          "internalType": "uint256",
          "name": "rating",
          "type": "uint256"
        },
        {
          "internalType": "uint256",
          "name": "stock",
          "type": "uint256"
        }
      ],
      "stateMutability": "view",
      "type": "function"
    },
    {
      "inputs": [
        {
          "internalType": "uint256",
          "name": "_id",
          "type": "uint256"
        },
        {
          "internalType": "string",
          "name": "_name",
          "type": "string"
        },
        {
          "internalType": "string",
          "name": "_category",
          "type": "string"
        },
        {
          "internalType": "string",
          "name": "_image",
          "type": "string"
        },
        {
          "internalType": "uint256",
          "name": "_cost",
          "type": "uint256"
        },
        {
          "internalType": "uint256",
          "name": "_rating",
          "type": "uint256"
        },
        {
          "internalType": "uint256",
          "name": "_stock",
          "type": "uint256"
        }
      ],
      "name": "list",
      "outputs": [],
      "stateMutability": "nonpayable",
      "type": "function"
    },
    {
      "inputs": [
        {
          "internalType": "address",
          "name": "",
          "type": "address"
        }
      ],
      "name": "orderCount",
      "outputs": [
        {
          "internalType": "uint256",
          "name": "",
          "type": "uint256"
        }
      ],
      "stateMutability": "view",
      "type": "function"
    },
    {
      "inputs": [
        {
          "internalType": "address",
          "name": "",
          "type": "address"
        },
        {
          "internalType": "uint256",
          "name": "",
          "type": "uint256"
        }
      ],
      "name": "orders",
      "outputs": [
        {
          "internalType": "uint256",
          "name": "time",
          "type": "uint256"
        },
        {
          "components": [
            {
              "internalType": "uint256",
              "name": "id",
              "type": "uint256"
            },
            {
              "internalType": "string",
              "name": "name",
              "type": "string"
            },
            {
              "internalType": "string",
              "name": "category",
              "type": "string"
            },
            {
              "internalType": "string",
              "name": "image",
              "type": "string"
            },
            {
              "internalType": "uint256",
              "name": "cost",
              "type": "uint256"
            },
            {
              "internalType": "uint256",
              "name": "rating",
              "type": "uint256"
            },
            {
              "internalType": "uint256",
              "name": "stock",
              "type": "uint256"
            }
          ],
          "internalType": "struct Dappazon.Item",
          "name": "item",
          "type": "tuple"
        }
      ],
      "stateMutability": "view",
      "type": "function"
    },
    {
      "inputs": [],
      "name": "owner",
      "outputs": [
        {
          "internalType": "address",
          "name": "",
          "type": "address"
        }
      ],
      "stateMutability": "view",
      "type": "function"
    },
    {
      "inputs": [],
      "name": "withdraw",
      "outputs": [],
      "stateMutability": "nonpayable",
      "type": "function"
    }
  ],
  "bytecode": "0x608060405234801561001057600080fd5b50336000806101000a81548173ffffffffffffffffffffffffffffffffffffffff021916908373ffffffffffffffffffffffffffffffffffffffff1602179055506117d0806100606000396000f3fe6080604052600436106100705760003560e01c80638da5cb5b1161004e5780638da5cb5b14610107578063bfb231d214610132578063d96a094a14610175578063eea8a7e81461019157610070565b80633ccfd60b14610075578063713d856b1461008c578063793b8c6d146100c9575b600080fd5b34801561008157600080fd5b5061008a6101ba565b005b34801561009857600080fd5b506100b360048036038101906100ae9190610d5f565b6102e2565b6040516100c09190610da5565b60405180910390f35b3480156100d557600080fd5b506100f060048036038101906100eb9190610dec565b6102fa565b6040516100fe929190610f75565b60405180910390f35b34801561011357600080fd5b5061011c610513565b6040516101299190610fb4565b60405180910390f35b34801561013e57600080fd5b5061015960048036038101906101549190610fcf565b610537565b60405161016c9796959493929190611046565b60405180910390f35b61018f600480360381019061018a9190610fcf565b610711565b005b34801561019d57600080fd5b506101b860048036038101906101b391906111ff565b610b62565b005b60008054906101000a900473ffffffffffffffffffffffffffffffffffffffff1673ffffffffffffffffffffffffffffffffffffffff163373ffffffffffffffffffffffffffffffffffffffff1614610248576040517f08c379a000000000000000000000000000000000000000000000000000000000815260040161023f90611341565b60405180910390fd5b60008060009054906101000a900473ffffffffffffffffffffffffffffffffffffffff1673ffffffffffffffffffffffffffffffffffffffff164760405161028f90611392565b60006040518083038185875af1925050503d80600081146102cc576040519150601f19603f3d011682016040523d82523d6000602084013e6102d1565b606091505b50509050806102df57600080fd5b50565b60026020528060005260406000206000915090505481565b600360205281600052604060002060205280600052604060002060009150915050806000015490806001016040518060e00160405290816000820154815260200160018201805461034a906113d6565b80601f0160208091040260200160405190810160405280929190818152602001828054610376906113d6565b80156103c35780601f10610398576101008083540402835291602001916103c3565b820191906000526020600020905b8154815290600101906020018083116103a657829003601f168201915b505050505081526020016002820180546103dc906113d6565b80601f0160208091040260200160405190810160405280929190818152602001828054610408906113d6565b80156104555780601f1061042a57610100808354040283529160200191610455565b820191906000526020600020905b81548152906001019060200180831161043857829003601f168201915b5050505050815260200160038201805461046e906113d6565b80601f016020809104026020016040519081016040528092919081815260200182805461049a906113d6565b80156104e75780601f106104bc576101008083540402835291602001916104e7565b820191906000526020600020905b8154815290600101906020018083116104ca57829003601f168201915b505050505081526020016004820154815260200160058201548152602001600682015481525050905082565b60008054906101000a900473ffffffffffffffffffffffffffffffffffffffff1681565b6001602052806000526040600020600091509050806000015490806001018054610560906113d6565b80601f016020809104026020016040519081016040528092919081815260200182805461058c906113d6565b80156105d95780601f106105ae576101008083540402835291602001916105d9565b820191906000526020600020905b8154815290600101906020018083116105bc57829003601f168201915b5050505050908060020180546105ee906113d6565b80601f016020809104026020016040519081016040528092919081815260200182805461061a906113d6565b80156106675780601f1061063c57610100808354040283529160200191610667565b820191906000526020600020905b81548152906001019060200180831161064a57829003601f168201915b50505050509080600301805461067c906113d6565b80601f01602080910402602001604051908101604052809291908181526020018280546106a8906113d6565b80156106f55780601f106106ca576101008083540402835291602001916106f5565b820191906000526020600020905b8154815290600101906020018083116106d857829003601f168201915b5050505050908060040154908060050154908060060154905087565b6000600160008381526020019081526020016000206040518060e00160405290816000820154815260200160018201805461074b906113d6565b80601f0160208091040260200160405190810160405280929190818152602001828054610777906113d6565b80156107c45780601f10610799576101008083540402835291602001916107c4565b820191906000526020600020905b8154815290600101906020018083116107a757829003601f168201915b505050505081526020016002820180546107dd906113d6565b80601f0160208091040260200160405190810160405280929190818152602001828054610809906113d6565b80156108565780601f1061082b57610100808354040283529160200191610856565b820191906000526020600020905b81548152906001019060200180831161083957829003601f168201915b5050505050815260200160038201805461086f906113d6565b80601f016020809104026020016040519081016040528092919081815260200182805461089b906113d6565b80156108e85780601f106108bd576101008083540402835291602001916108e8565b820191906000526020600020905b8154815290600101906020018083116108cb57829003601f168201915b5050505050815260200160048201548152602001600582015481526020016006820154815250509050806080015134101561092257600080fd5b60008160c001511161093357600080fd5b60006040518060400160405280428152602001838152509050600260003373ffffffffffffffffffffffffffffffffffffffff1673ffffffffffffffffffffffffffffffffffffffff168152602001908152602001600020600081548092919061099c90611436565b919050555080600360003373ffffffffffffffffffffffffffffffffffffffff1673ffffffffffffffffffffffffffffffffffffffff1681526020019081526020016000206000600260003373ffffffffffffffffffffffffffffffffffffffff1673ffffffffffffffffffffffffffffffffffffffff16815260200190815260200160002054815260200190815260200160002060008201518160000155602082015181600101600082015181600001556020820151816001019081610a63919061162a565b506040820151816002019081610a79919061162a565b506060820151816003019081610a8f919061162a565b506080820151816004015560a0820151816005015560c082015181600601555050905050600160008481526020019081526020016000206006016000815480929190610ada906116fc565b91905055507f1cbc5ab135991bd2b6a4b034a04aa2aa086dac1371cb9b16b8b5e2ed6b036bed33600260003373ffffffffffffffffffffffffffffffffffffffff1673ffffffffffffffffffffffffffffffffffffffff168152602001908152602001600020548460000151604051610b5593929190611725565b60405180910390a1505050565b60008054906101000a900473ffffffffffffffffffffffffffffffffffffffff1673ffffffffffffffffffffffffffffffffffffffff163373ffffffffffffffffffffffffffffffffffffffff1614610bf0576040517f08c379a0000000000000000000000000000000000000000000000000000000008152600401610be790611341565b60405180910390fd5b60006040518060e0016040528089815260200188815260200187815260200186815260200185815260200184815260200183815250905080600160008a8152602001908152602001600020600082015181600001556020820151816001019081610c5a919061162a565b506040820151816002019081610c70919061162a565b506060820151816003019081610c86919061162a565b506080820151816004015560a0820151816005015560c082015181600601559050507ffdbe2a012c10ec01592653978eaa09b5ca60b143a0e617505b2ebcbd911ec5b8878584604051610cdb9392919061175c565b60405180910390a15050505050505050565b6000604051905090565b600080fd5b600080fd5b600073ffffffffffffffffffffffffffffffffffffffff82169050919050565b6000610d2c82610d01565b9050919050565b610d3c81610d21565b8114610d4757600080fd5b50565b600081359050610d5981610d33565b92915050565b600060208284031215610d7557610d74610cf7565b5b6000610d8384828501610d4a565b91505092915050565b6000819050919050565b610d9f81610d8c565b82525050565b6000602082019050610dba6000830184610d96565b92915050565b610dc981610d8c565b8114610dd457600080fd5b50565b600081359050610de681610dc0565b92915050565b60008060408385031215610e0357610e02610cf7565b5b6000610e1185828601610d4a565b9250506020610e2285828601610dd7565b9150509250929050565b610e3581610d8c565b82525050565b600081519050919050565b600082825260208201905092915050565b60005b83811015610e75578082015181840152602081019050610e5a565b60008484015250505050565b6000601f19601f8301169050919050565b6000610e9d82610e3b565b610ea78185610e46565b9350610eb7818560208601610e57565b610ec081610e81565b840191505092915050565b600060e083016000830151610ee36000860182610e2c565b5060208301518482036020860152610efb8282610e92565b91505060408301518482036040860152610f158282610e92565b91505060608301518482036060860152610f2f8282610e92565b9150506080830151610f446080860182610e2c565b5060a0830151610f5760a0860182610e2c565b5060c0830151610f6a60c0860182610e2c565b508091505092915050565b6000604082019050610f8a6000830185610d96565b8181036020830152610f9c8184610ecb565b90509392505050565b610fae81610d21565b82525050565b6000602082019050610fc96000830184610fa5565b92915050565b600060208284031215610fe557610fe4610cf7565b5b6000610ff384828501610dd7565b91505092915050565b600082825260208201905092915050565b600061101882610e3b565b6110228185610ffc565b9350611032818560208601610e57565b61103b81610e81565b840191505092915050565b600060e08201905061105b600083018a610d96565b818103602083015261106d818961100d565b90508181036040830152611081818861100d565b90508181036060830152611095818761100d565b90506110a46080830186610d96565b6110b160a0830185610d96565b6110be60c0830184610d96565b98975050505050505050565b600080fd5b600080fd5b7f4e487b7100000000000000000000000000000000000000000000000000000000600052604160045260246000fd5b61110c82610e81565b810181811067ffffffffffffffff8211171561112b5761112a6110d4565b5b80604052505050565b600061113e610ced565b905061114a8282611103565b919050565b600067ffffffffffffffff82111561116a576111696110d4565b5b61117382610e81565b9050602081019050919050565b82818337600083830152505050565b60006111a261119d8461114f565b611134565b9050828152602081018484840111156111be576111bd6110cf565b5b6111c9848285611180565b509392505050565b600082601f8301126111e6576111e56110ca565b5b81356111f684826020860161118f565b91505092915050565b600080600080600080600060e0888a03121561121e5761121d610cf7565b5b600061122c8a828b01610dd7565b975050602088013567ffffffffffffffff81111561124d5761124c610cfc565b5b6112598a828b016111d1565b965050604088013567ffffffffffffffff81111561127a57611279610cfc565b5b6112868a828b016111d1565b955050606088013567ffffffffffffffff8111156112a7576112a6610cfc565b5b6112b38a828b016111d1565b94505060806112c48a828b01610dd7565b93505060a06112d58a828b01610dd7565b92505060c06112e68a828b01610dd7565b91505092959891949750929550565b7f4f6e6c79206f776e65722063616e2063616c6c2074686973206d6574686f6400600082015250565b600061132b601f83610ffc565b9150611336826112f5565b602082019050919050565b6000602082019050818103600083015261135a8161131e565b9050919050565b600081905092915050565b50565b600061137c600083611361565b91506113878261136c565b600082019050919050565b600061139d8261136f565b9150819050919050565b7f4e487b7100000000000000000000000000000000000000000000000000000000600052602260045260246000fd5b600060028204905060018216806113ee57607f821691505b602082108103611401576114006113a7565b5b50919050565b7f4e487b7100000000000000000000000000000000000000000000000000000000600052601160045260246000fd5b600061144182610d8c565b91507fffffffffffffffffffffffffffffffffffffffffffffffffffffffffffffffff820361147357611472611407565b5b600182019050919050565b60008190508160005260206000209050919050565b60006020601f8301049050919050565b600082821b905092915050565b6000600883026114e07fffffffffffffffffffffffffffffffffffffffffffffffffffffffffffffffff826114a3565b6114ea86836114a3565b95508019841693508086168417925050509392505050565b6000819050919050565b600061152761152261151d84610d8c565b611502565b610d8c565b9050919050565b6000819050919050565b6115418361150c565b61155561154d8261152e565b8484546114b0565b825550505050565b600090565b61156a61155d565b611575818484611538565b505050565b5b818110156115995761158e600082611562565b60018101905061157b565b5050565b601f8211156115de576115af8161147e565b6115b884611493565b810160208510156115c7578190505b6115db6115d385611493565b83018261157a565b50505b505050565b600082821c905092915050565b6000611601600019846008026115e3565b1980831691505092915050565b600061161a83836115f0565b9150826002028217905092915050565b61163382610e3b565b67ffffffffffffffff81111561164c5761164b6110d4565b5b61165682546113d6565b61166182828561159d565b600060209050601f8311600181146116945760008415611682578287015190505b61168c858261160e565b8655506116f4565b601f1984166116a28661147e565b60005b828110156116ca578489015182556001820191506020850194506020810190506116a5565b868310156116e757848901516116e3601f8916826115f0565b8355505b6001600288020188555050505b505050505050565b600061170782610d8c565b91506000820361171a57611719611407565b5b600182039050919050565b600060608201905061173a6000830186610fa5565b6117476020830185610d96565b6117546040830184610d96565b949350505050565b60006060820190508181036000830152611776818661100d565b90506117856020830185610d96565b6117926040830184610d96565b94935050505056fea2646970667358221220a6a658bbd157793eb449bcece1dbd960458375fea65a5ef4ee2d2e6c3c4c743f64736f6c63430008110033",
  "linkReferences": {},
  "deployedLinkReferences": {}
}